:020000040800F2
:1000000000000320A9050008F9040008FB0400080B
:10001000FD040008FF0400080105000800000000BE
:1000200000000000000000000000000003050008C0
:100030000505000800000000070500080905000884
:1000400000000000F5050008F5050008F5050008AA
:10005000F5050008F5050008F5050008F505000898
:10006000F5050008F5050008F5050008F505000888
:10007000F5050008F5050008F5050008F505000878
:10008000F5050008F5050008F5050008F505000868
:10009000F5050008F5050008F5050008F505000858
:1000A000F5050008F5050008F5050008F505000848
:1000B000F5050008F5050008F5050008F505000838
:1000C000F5050008F5050008F5050008F505000828
:1000D000F5050008F5050008F5050008F505000818
:1000E000F5050008F5050008F5050008F505000808
:1000F000F5050008F5050008F5050008F5050008F8
:10010000F5050008F5050008F5050008F5050008E7
:10011000F5050008F5050008F5050008F5050008D7
:10012000F5050008F5050008F5050008F5050008C7
:10013000F5050008F5050008F5050008F5050008B7
:10014000F5050008F5050008F5050008F5050008A7
:10015000F5050008F5050008F5050008F505000897
:10016000F5050008F5050008F5050008F505000887
:10017000F5050008F5050008F50500080000000079
:10018000F5050008F5050008F5050008F505000867
:10019000F5050008F5050008F50500080000000059
:0C01A000F5050008F5050008F50500084D
:1001AC0010B5054C237833B9044B13B10448AFF3A5
:1001BC0000800123237010BD04000020000000000B
:1001CC00F805000808B5034B1BB103490348AFF30E
:1001DC00008008BD0000000008000020F8050008A1
:1001EC00354AD2F8003843F00103C2F80038002336
:1001FC000133314AD2F8002812F0020F02D1B3F5C4
:10020C00A06FF5D12C4BD3F8003813F0020F00D1AE
:10021C00FEE7294BD3F8402842F08052C3F840281F
:10022C0026490A6842F440420A60D3F80828C3F809
:10023C000828D3F8082842F40042C3F80828D3F859
:10024C00082842F4A052C3F808281D4AC3F8042811
:10025C00D3F8002842F08072C3F80028164BD3F86C
:10026C00003813F0007FF9D0144A136843F480333C
:10027C001360124B5B6813F4803FFAD00F4A13687B
:10028C0043F4003313600D4B5B6813F4003FFAD05A
:10029C00094BD3F8082822F00302C3F80828D3F836
:1002AC00082842F00202C3F80828034BD3F8083898
:1002BC0013F0080FF9D07047003002400070004076
:1002CC001078000A08B5FFF78BFF08BD00B583B0A6
:1002DC002B4AD2F8883043F47003C2F88830294A8C
:1002EC00D2F8003843F00103C2F80038254BD3F89C
:1002FC00003813F0020FF9D0224AD2F8083843F034
:10030C008003C2F808380023019302E0019B0133FB
:10031C000193019B4F2BF9D91A4AD2F8083843F0B4
:10032C009003C2F808380023019302E0019B0133CB
:10033C000193019B4F2BF9D9124BD3F8082822F0CB
:10034C000302C3F80828D3F8002822F0847222F4A0
:10035C008032C3F80028D3F8002822F48022C3F896
:10036C0000280022C3F80828D3F808180649C3F857
:10037C000418C3F80C28FFF7A5FF03B05DF804FBC5
:10038C0000ED00E00030024010300024F0B50568AC
:10039C00C6684FF0000C03E00CF1010C1FFA8CFC4A
:1003AC00BCF10F0F18D84FF0010E0EFA0CFE1EEA1E
:1003BC00030FF1D04FEA4C044FF0030E0EFA04FE7B
:1003CC0025EA0E0501FA04F73D4326EA0E0E02FA61
:1003DC0004F444EA0E06DFE70560C660F0BD10B514
:1003EC00012906D0416821EA03014160846800219B
:1003FC0005E0416819434160F8E7013189B20F29E2
:10040C0013D84FF0010C0CFA01FC1CEA030FF4D0CA
:10041C004FEA410C4FF0030E0EFA0CFE24EA0E04C8
:10042C0002FA0CFC4CEA0404E7E7846010BD0AB144
:10043C008161704781627047830903F1804303F542
:10044C000E331A6800F01F00012101FA00F010436E
:10045C001860704710B540F60440FFF7EDFF224CD2
:10046C000823002201212046FFF790FF08230222D7
:10047C0000212046FFF7B3FF40F60340FFF7DCFFF7
:10048C00A4F580648023002201212046FFF77EFF23
:10049C008023022200212046FFF7A1FF40F60640F0
:1004AC00FFF7CAFF04F5406408230022012120460F
:1004BC00FFF76CFF0823022200212046FFF78FFF75
:1004CC004FF44060FFF7B8FFA4F5C054202300227E
:1004DC0001212046FFF75AFF20230222002120464B
:1004EC00FFF77DFF10BD00BF001002407047FEE714
:1004FC00FEE7FEE7FEE770477047704708B500F06F
:10050C0043F808BD08B500F01FF8FFF7A3FF012260
:10051C0008210948FFF78BFF012280210748FFF7CC
:10052C0086FF012208210648FFF781FF01222021C6
:10053C000448FFF77CFFFEE700100240000C02406D
:10054C0000180240000002400C4B1B680C4AA2FB36
:10055C0003239B09013BB3F1807F0DD24FF0E022C6
:10056C005361084BF02183F823100021916107207F
:10057C00106183F823107047FEE700BF00000020D5
:10058C00D34D621000ED00E0034B1B681BB1024A17
:10059C001368013B1360704720000020DFF830D057
:1005AC00002103E00B4B5B58435004310A480B4BC2
:1005BC0042189A42F6D30A4A02E0002342F8043B5E
:1005CC00084B9A42F9D3FFF781FEFFF79BFF704768
:1005DC000000032018060008000000200400002082
:1005EC000400002024000020FEE70000F8B500BF46
:1005FC00F8BC08BC9E467047F8B500BFF8BC08BCF8
:04060C009E4670474F
:04061000D10100080C
:04061400AD0100082C
:04061800001C4E0E66
:04000005080005A941
:00000001FF
